:1010000000890020194C000037C10000054C000089
:10101000054C0000054C0000054C000000000000DD
:10102000000000000000000000000000E94D00008A
:10103000054C000000000000B54D0000054C00000C
:10104000954F0000954F0000954F0000954F000010
:10105000954F0000954F0000954F0000954F000000
:10106000954F0000954F0000954F0000954F0000F0
:10107000954F0000954F0000954F0000954F0000E0
:10108000954F0000954F0000954F0000954F0000D0
:10109000954F0000954F0000954F0000954F0000C0
:1010A000954F0000954F0000954F0000954F0000B0
:1010B000954F0000954F0000954F0000954F0000A0
:1010C000954F0000954F0000954F0000954F000090
:1010D000954F0000954F0000954F0000954F000080
:1010E000954F0000954F0000954F0000954F000070
:1010F000954F0000954F0000954F0000954F000060
:1011000053B94AB9002908BF00281CBF4FF0FF316E
:101110004FF0FF3000F00CB8ADF1080C6DE904CED3
:1011200000F008F8DDF804E0DDE9022304B07047C0
:10113000704700BF2DE9F04786468C460846089E5A
:10114000154674461946002B40F0C2808542B2FA1B
:1011500082F245D94AB1C2F1200300FA02FC2EFA0C
:1011600003F3954043EA0C0C94404FEA154EA8B2A5
:10117000BCFBFEF8230C0EFB18CC08FB00F943EA7D
:101180000C43994528D9EB1808F1FF3704D299454B
:1011900002D9A8F102072B44A3EB0903A4B2B3FBC5
:1011A000FEFC0EFB1C330CFB00F044EA0344A0429F
:1011B00014D92C190CF1FF3304D2A04202D9ACF19E
:1011C00002032C44241A43EA07401EB1D4400023F2
:1011D00034607360BDE8F0874746DDE76346F1E7BA
:1011E00092BB431B01214FEA154EAFB2B3FBFEFC8D
:1011F000200C0EFB1C330CFB07F840EA0343984518
:1012000062D9EB180CF1FF3004D2984502D9ACF149
:1012100002002B44A3EB0803A4B2B3FBFEFC0EFBBD
:101220001C330CFB07F744EA0344A7424ED92C19A0
:101230000CF1FF3304D2A74202D9ACF102032C44D3
:10124000E41B43EA0040C0E7C2F1200320FA03F1A7
:10125000954090402EFA03F303434FEA154EAFB288
:10126000B1FBFEFC0EFB1C10190C0CFB07F841EA4D
:101270000041884504FA02F422D969180CF1FF30C4
:1012800004D2884502D9ACF102002944A1EB08013F
:101290009BB2B1FBFEFC0EFB1C110CFB07F743EAF3
:1012A00001439F420ED9EB180CF1FF3104D29F424B
:1012B00002D9ACF102012B44DB1B41EA004192E769
:1012C0006046E3E76146F7E76046A3E76346B7E7B2
:1012D000834206D916B9002108467BE7C6E900E03B
:1012E000F9E7B3FA83F78FB9834201D3724508D87F
:1012F000BEEB020460EB030301209C461EB90021F3
:1013000068E73846FAE7C6E9004CF8E7C7F1200C71
:10131000BB4022FA0CF41C432EFA0CF120FA0CF319
:10132000B84001434FEA14490EFA07F5B3FBF9F848
:101330001FFA84FE09FB18300B0C08FB0EFA43EA77
:1013400000439A4502FA07F240D9E31808F1FF304A
:1013500004D29A4502D9A8F102002344A3EB0A0360
:1013600089B2B3FBF9F809FB183308FB0EFE41EA1A
:1013700003418E452CD9611808F1FF3304D28E4504
:1013800002D9A8F10203214443EA0040A0FB0298DD
:10139000A1EB0E014145CE46434602D306D14D4551
:1013A00004D2B9EB020E68EB04030138002EA6D07C
:1013B000B5EB0E0261EB030101FA0CFC22FA07F314
:1013C0004CEA0303F940C6E9003198E74046C5E717
:1013D0004346D9E7F0B52D4B2D4AC3F8002685B01A
:1013E000C3F80426C3F80826C3F80C26C3F8102651
:1013F000C3F81426C3F81826C3F81C2600F04EF8CC
:1014000000F09CF800F068F870B14FF08043D3F81A
:1014100000340BB1DB0707D5012000F055F802F0CE
:10142000B3FE1C4803F02EFA01A800F0D7FC1A4BBB
:101430001B68834200D0FEE74FF480314FF48050A8
:101440000BF033F9044600B1FEE769469DF8080049
:1014500009F058FC009B039D1D44019B1E8906F06A
:10146000DFF9AF1901F092FE00F09AFE00F06EFE77
:1014700003F00EFCAB5983F3088884F31488BFF3A0
:101480006F8FBFF36F8F7B689847FEE700000140C6
:101490003546526ED8EA00004807002008B50848D3
:1014A0000CF064FE58B107484FF4003109F015FC08
:1014B000BDE8084002480022062109F0FEBB08BD35
:1014C000FCE80000E8EA000002460621014809F0B5
:1014D000F4BB00BFFCE8000037B50D4C20460CF013
:1014E00045FE98B10B484FF4803109F0F6FB2569B1
:1014F000A36801A95B682046984720B92B6801982A
:101500005840C0F38010003818BF012003B030BD30
:10151000E8E80000E0EA000021B1012906D06FF000
:1015200015007047044B53F830007047024B03EB33
:10153000C0035868704700BFF0EA000002484FF44B
:10154000C05106F0B3BE00BFE22C00202DE9F04FE1
:10155000F9B0DDE9848ADFF8F891869CD9F800605B
:1015600038A817461D460CF0F2F8002138A806F0FE
:10157000D3FFB8F1000F07D0BAF1000F04DD5246D7
:10158000414638A80CF0ECF83B897A89D7F80CB0C2
:1015900013449B444FF00008C34564D80DA938A8F4
:1015A0000CF01DF938A80CF0D6F824B120220DA9B2
:1015B00020460AF02CFE002300932A464FF6FF73C4
:1015C000394607A809F0BFFB804600285BD12846B2
:1015D0000C9C09F08FFC844255D8DFF878B1DFF815
:1015E00078A14FF0FF340DF1160305AA06A907A84C
:1015F00009F0F7FB002846DB40F0A280069907A817
:1016000009F03BFC50B9BDF81600544A4FF6FF7183
:1016100032F8023B8B4236D09842F9D1BDF81670B1
:10162000102F3AD0202F6DD0012FDCD1BDF814300F
:10163000202B28D8069938AA28460AF030FB044601
:1016400008BB9DF814300293202B09D8DAF800303B
:10165000434F0393039B9C421DA836DB0CF07BF8A1
:101660004FF0FF34BFE7839B829AABEB080A9A45A1
:1016700028BF9A465346414628460AF010FB28B137
:1016800038A80CF068F8D9F800605CE082995246FE
:1016900038A80CF065F8D0447EE7BDF81470202F10
:1016A000F1D106993B4638AA28460AF0F8FA0028F4
:1016B000E9D13A4638A90DA809F0EDFBDBF8003076
:1016C0008342E0D14FF001088DE70CF040F8002193
:1016D0001DA806F021FF7A6857F8081B12681DA89C
:1016E0000CF03EF815A91DA80CF079F8029A38A95B
:1016F00015A80AF065FD18B91DA80CF02CF872E7C2
:101700000134A7E7631C3FF46EAFDAF80030A34260
:10171000A6DDBDF81430B3F5807FB4D1069938AAA0
:1017200028460AF0BCFA0028ADD1E4B2BDF8143066
:10173000009438AA39460DA800F014F806468FE741
:10174000B8F1000F9FD0304679B0BDE8F08F00BFF0
:10175000B400002048070020F8EA0000A4EE0000D2
:10176000FCEA00002DE9F04FDFF8E4A1ADF5417D82
:1017700007462AA89DF828B3DAF800501E46894685
:1017800090460BF09DFF092201212AA806F040FE99
:10179000704B53F83B40059403EBCB0380AA5B6886
:1017A0001B681C442146302305A80BF073F8002861
:1017B00040F0C580059B809A13449C4240F0BF8056
:1017C0002CAA214605A80BF079F8002840F0B78034
:1017D0000DF1B80B5A46214605A80BF06FF803909F
:1017E000002840F0AC802CA80BF016FC059A2B903A
:1017F000944240F0A480039BCDF804B000931A46B5
:101800002CA92AA80BF019FF002840F098802AA8DC
:1018100006F014FE002840F092802CA80BF0FCFB90
:101820002B902AA80BF056FF864240F08880B6F530
:10183000807FDAF8005040F08280B9F1200F7ED12D
:1018400080AA41462AA806F01FFE0446002876D149
:101850009DF8FF32BC2B72D106900DF59079DF26F2
:101860000FA80BF074FF00210FA806F055FE2022F0
:101870000DF2DF210FA80BF073FF042206A90FA8B9
:101880000BF06EFF07A90FA80BF0A9FF202E9DF803
:101890001B30B046A8BF4FF02008013348464246EF
:1018A00007A9A6EB08068DF81B300AF0B0FC002E45
:1018B000C144D5DC0FA80BF04EFF48AB80AA1846F8
:1018C00000219C46067812F801EB013186EA0E06EB
:1018D000DF2900F8016BF5D11A7802F07F021A7047
:1018E00013F8016B5EBB0134BE2CF9D19CF8BE30FD
:1018F000012B24D10FA80BF02AFF31460FA806F0C8
:101900000BFE154908220FA80BF02AFF39462022AA
:101910000FA80BF025FF20220DF2DF110FA80BF00E
:101920001FFF07A90FA80BF05AFF0FA80BF013FF1A
:1019300020220DF2DF2107A809F0ADFA05462AA8FA
:101940000BF0CAFE28460DF5417DBDE8F08F00BFC3
:10195000B4000020FCEA0000D2EE0000094A0B7837
:10196000400052F820108B4209D0013052F820007C
:10197000834214BF4FF0FF304FF4C07070474FF4F4
:10198000C070704704EB00001FB50F4B13F8300018
:101990000C4601F0D7F850B92068816810236A46D8
:1019A00010390AF07CF928B120680AF077F94FF075
:1019B000FF3006E00549102268460AF001FC0028C5
:1019C000F2D104B010BD00BF04EB0000C2EE000075
:1019D0002DE9F041354F88B0064600200D463C68A1
:1019E000FFF79AFD06A9C0B201F0ACF8E0B92946AC
:1019F000FFF792FD2C2407A9C0B204FB056401F097
:101A0000A1F8A8B12C2068433218069B116911F087
:101A1000100F1DD01DB10699304609F03CFB244B38
:101A20001C6806980AF03AF9204608B0BDE8F08133
:101A300007980AF07DF9804607980AF02FF9631E8F
:101A4000E21C13F8011F4145DCD19A42F9D1E1E7CC
:101A500036581848864226D1D6681089801922D275
:101A6000528912181FD2986882421CD240F60C622A
:101A7000114018D14FF4807201920F4A0092CDE9C3
:101A80000311224602910846FFF760FD04460B4B06
:101A90001B68A342C5D0002DC1D0069800218268E2
:101AA0000AF027F9BBE73C68F1E700BFB40000206B
:101AB000B00000203DB8F396E24400204807002023
:101AC0007FB50D46044600212846CDE9021109F0F4
:101AD000A1FAE8B12368154EB34203D103AA204608
:101AE00009F02DFAE36AB34204D102AA012120468B
:101AF00009F025FADDE90232934288BF0393039B84
:101B0000AB60039A2946204600F03EFA04B070BD4F
:101B100001A9FFF739FF019805F1080109F0CDF996
:101B2000AB68019803930AF0B9F8EAE73DB8F39679
:101B30002DE9F84FDFF870B01C4C1D4D88469146DA
:101B40009A4600260B9B9E4201D300200FE00B9B80
:101B5000154A9F1BB7F5806F28BF4FF480673B463F
:101B600006EB0A0140460AF09AF810B10120BDE8E0
:101B7000F88F0A993B465A46711848460AF0A4F86D
:101B80000028F3D1C4F800563E44C4F80456C4F803
:101B90000856C4F80C56C4F81056C4F81456C4F8C5
:101BA0001856C4F81C56CDE74C0700200000014031
:101BB0003546526EF0B5854B43620E4603F58063A1
:101BC000002187B0044603650846FFF7A5FC04F131
:101BD0002001C0B200F0B6FF002859D10121FFF763
:101BE0009BFC04F14C01C0B200F0ACFF00284FD1C7
:101BF000204609F0E5F900284BD100221146204685
:101C000009F087F900285BD1204609F050FB002835
:101C100056D002A809F0F5F90146204609F08FFADE
:101C200000284DD102A809F0F5F980F0010102AABF
:101C3000C9B2204609F06DF90246002840D102A839
:101C400009F0E8F9054600283ED102A92046FFF731
:101C500037FF9DF80F3084F85830033B012B06D82E
:101C6000284600F0E1F810B1FF2384F858309DF8C1
:101C70000F30023B022B06D8002000F0BFF810B155
:101C8000FF2384F8583094F85830FF2B13D1FEE727
:101C9000FEE70123984284F85830AED194F85830CA
:101CA0008DF80F30042B37D8012B3BD84DD0FF23B4
:101CB00084F8583049E002AA0021204609F029F9A9
:101CC000012384F85830E9E79DF80F70012F17D1F0
:101CD000104605F051FE831E022B05460DD83946ED
:101CE0002046FFF775FE3A4B1B68984205D0394BEA
:101CF0001D68A84214BF0525012584F85850CDE77A
:101D000001212046FFF764FE314B1B6898420CBF4F
:101D10009DF80F300523D4E7052BC8D1002000F033
:101D200083F810E002A92046FFF7CAFE94F8583065
:101D3000DA1E012A0ED8002000F076F80028B6D16D
:101D4000002000F05BF80028B1D194F85830FF2B48
:101D500003D1FEE7022BF8D1F2E70022012B1E4D42
:101D6000019213D01146204609F0D3F870B12D68C6
:101D70001022002102A80AF055FAE06C09F08EFF4B
:101D8000206A09F08BFF284607B0F0BD00212046ED
:101D9000FFF71EFE0E4F3B688342E8D12A689A4245
:101DA000E5D00C4A12689A42E1D0019B01330193BD
:101DB000019B012B00D0FEE7206A08F0A9FF3071DB
:101DC000236A5B6834603D68B360D1E74C0B002048
:101DD00048070020B0000020B400002038B5064DB0
:101DE00004466022002128460AF01CFA21462846B3
:101DF000FFF7E0FE38BD00BF4C13002013B5094BC0
:101E000001A913F8300000F09DFE48B901980AF0CE
:101E100005FD0446019809F041FF204602B010BDBF
:101E20000124FAE70CEB00001FB50F4B01A913F8D2
:101E3000300000F087FEA8B9019802A905F046FD20
:101E4000044668B99DF80B30032B03D101980AF0C2
:101E5000B3FC0446019809F021FF204604B010BDF0
:101E60000124F7E70124F8E70CEB00002DE9F3412A
:101E700006460C4617461D460BB9002628E01846B4
:101E800009F0C8F80028F8D16946FFF77DFD0098F1
:101E900038B90124009809F001FF204602B0BDE8DE
:101EA000F08101A909F009F80028F2D1009809F0A1
:101EB000F5FE3046019909F090F9736A5E686B7916
:101EC000012B21D1002CD8D12B68834298BF00264A
:101ED00021460020FFF720FB6946C0B200F032FE29
:101EE0000028D6D1009820233A46314609F0D7FE83
:101EF00004460028CDD1002DCCD03C680D4BE41A0F
:101F000018BF4FF0FF34C5E7022BB6D12B68012B69
:101F100005D98342B1D8B4FA84F46409ADE7ACD1F1
:101F2000002CD5D0012CA8D12C79023C18BF01245B
:101F3000A3E700BF3DB8F39673B54B681446114A4A
:101F400003F0FF23934206460D4618D10B68012B80
:101F500015D16946204605F0B9FC9DF80030032BE9
:101F60000DD12146304609F096F820460AF024FCAF
:101F7000A968204608F0AFFF204605F087FC02B0B4
:101F800070BD00BF000100042DE9F04F0C4689B080
:101F90001146054609F021F96B6A039020465E68F8
:101FA00009F038F890B1E86D08F077FFAB6A0022CD
:101FB000013B3244904201D9013BFAE7039A934234
:101FC00004D80123E37109B0BDE8F08F06A903200E
:101FD00000F0B8FD07A9062000F0B4FD079A2146DD
:101FE0002846FFF7A9FF6379012B4BD1039FDFF848
:101FF00058B141E022680399C2F101030B44BB428E
:1020000039D36B6A196853F8370003EBC703012A09
:1020100053F8083CA0EB0109A3EB010A11D1079B7F
:102020000493E368022B08D04146284609F033F8B0
:1020300022464146284609F063F80499284609F0EB
:102040002AF832464946404609F023F853464246AC
:102050004146CDE900962846FFF76AFD214628460D
:1020600008F0E5FF23680133236020B1DBF800307E
:102070000133CBF80030013FDDF81880002FB9D1D3
:1020800001232360022363710127039BDDF818906D
:102090009F4206D9484609F001FE079809F0FEFD67
:1020A00091E72368BB424DD86A6ADDF81CA052F85C
:1020B0003710D2F800B00491FB00083BD1582A6DCC
:1020C000D0581368A0EB03082379012B38D1A1EB7A
:1020D0000B0132464846059108F0DBFF0599009157
:1020E00043464A46514601962846FFF721FD2146C0
:1020F000284608F09CFF0223237118B1124A136886
:102100000133136032464146504608F0C2FF049B3B
:102110005246A3EB0B034946CDE900862846FFF75C
:1021200007FD2146284608F082FF2368013323601B
:102130000123237130B1044A13680133136001E0B5
:10214000022BDFD00137A0E7AC130020BFF36F8F65
:1021500072B6124B4FF0FF32C3F88020C3F88420D0
:10216000C3F88820C3F88C20C3F89020C3F89420CB
:10217000C3F89820C3F89C20C3F88021C3F88421B9
:10218000C3F88821C3F88C21C3F89021C3F89421A7
:10219000C3F89821C3F89C21704700BF00E100E01C
:1021A000F8B5254B254D4FF0FF3401275F60C3F88C
:1021B0004843C3F8084303F5C04300265F60C3F8F3
:1021C0004843C3F8084303F5983302205F60C3F81F
:1021D0004843C3F80843C5F8084302F023FE6F6084
:1021E000C5F84C61D5F84C31C5F81061D5F81031FF
:1021F000C5F84461D5F84431C5F8006505F51835D2
:102200002820C5F8084302F00DFE6F60C5F84C6148
:10221000D5F84C31C5F81061D5F81031C5F84461D6
:10222000D5F84431064BC5F80065C3F808454FF0B2
:102230008043C3F80843F8BD00B0004000200040D0
:1022400000F00140014B1B68184700BFB800002098
:1022500007B50B46002102460091034800F006F83E
:1022600003B05DF804FB00BF452200002DE9F04FEC
:102270008DB01D46531E8246019103934FF0000915
:10228000039B5878252803F1010419D11E4600202C
:102290004FF0FF38023603460290444631780396E9
:1022A000392954D81F2914D8002900F0EE8101994A
:1022B0002520D04701993078D04709F10209DFE79E
:1022C000002800F0E2810199D04709F10109039447
:1022D000D6E7A1F12002192AE9D801A757F822F080
:1022E00049230000AF220000AF2200004923000074
:1022F000AF220000C9230000AF220000AF2200007F
:10230000AF220000AF220000152400004923000086
:10231000AF22000029240000D5230000AF220000D6
:10232000E323000003240000032400000324000032
:102330000324000003240000032400000324000001
:10234000032400000324000008460136A6E75829AC
:1023500000F0EB80A1F16302D7B2172FA7D8172A9C
:10236000A5D801A757F822F0D12500004F2400007E
:10237000AF220000AF220000AF2200002F24000097
:102380004F240000AF220000AF2200002F240000E5
:10239000AF220000AF220000AF22000005250000A0
:1023A000AF220000AF220000A5250000AF220000F0
:1023B0004F240000AF220000AF22000005250000DE
:1023C000AF2200002F24000001992520D04709F1F9
:1023D000010955E7029A02F0FE0202924FF000084E
:1023E000B3E7002C0DDAB8F1000F0DDA029A002ADB
:1023F00000F0438124EAE4740A2202FB0414303C16
:10240000A3E7B8F1000FF5DB0A2202FB0812A2F1E4
:1024100030089AE7B8F1000F55F8042B80F22F81AD
:10242000002A80F22E815442022202928DE768290E
:1024300003D1682B06D1482387E76C2902D16C2B86
:1024400000F02181002B7FF432AF0B467DE77A2B21
:1024500006D1752955F8046B14D14FF0000B0CE030
:102460006C2BF6D04C2BF4D1073525F007037529DA
:10247000D3E9006B03F1080506D120283BD1854F35
:10248000013C09E04FEAE67BBBF1000FF5DA76424A
:10249000814F6BEB4B0B013C0DF12D03059300239A
:1024A0000493304659460A220023FEF729FE059B75
:1024B000303203F8012DB4460593049B5A46BCF113
:1024C0000A0F8B4672F1000203F1FF3106460491B8
:1024D000E7D2C3F1010B30330DEB0306B8F1000F67
:1024E000A6F104066DDA029BD9077DD4A8EB0B0395
:1024F000A4EB0B0413E02B280ABF684F684F04F1CC
:10250000FF34C9E770290FD155F8042B0023FAB91D
:10251000634F644E053C6FF004034FF0050B029AC5
:10252000920770D4A04666E078216C2B03D155F851
:10253000042B002308E04C2BF9D1073525F00703C5
:102540001D465B6855F8082B232825D1880621D520
:10255000554F023C01F06001A1F1390B0DF12D0E38
:10256000002602F00F01092988BF594430310EF8C6
:10257000011D102A4FEA121141EA03714FEA131CA0
:1025800073F1000306F1FF3008D2C6F1010B06F12A
:102590003003A1E7454FDCE7414FDBE706460A463B
:1025A0006346DEE755F8046B304609F002FEB8F1E9
:1025B000000F834602DB4045A8BFC346384F4FF0AB
:1025C0000008A8EB0B03002B92DDA4EB0804A6E7A0
:1025D00055F8043B8DF81830314F013C4FF0FF3374
:1025E0004FF0010B06AE9AE7A046EAE70293019985
:1025F0002020D047029BB8F10108F7D524EAE47205
:10260000013C9144A41AB84606E004930292019951
:10261000D047029A049B9046424612F8010B0028CC
:10262000F3D11A46013A15D5002BACBFC7EB03070F
:102630007F425B46013B15D5BBF1000FA8BF5F444D
:102640004F442646013E14D5002CA8BF3F1907EB86
:10265000080915E60493029201993020D047049BA3
:10266000029ADFE70293019916F8010BD047029B0B
:10267000E0E701992020D047E4E70122D5E6904623
:1026800063E6144661E64C235FE648460DB0BDE8BC
:10269000F08F00BFEAEF0000E8EF0000ECEF000071
:1026A0006DF10000F4EF0000EEEF0000F1EF00002C
:1026B00008B50446EFF31183202383F31288BFF398
:1026C0006F8F05F0ADF8204602F0D0FA024809F00D
:1026D000F4F809F042FDFCE7FAEF00002DE9F043C1
:1026E000079D15B91560002012E00324B5FBF4F432
:1026F00004EB4407BD4218BF0134B4F1804F09D246
:10270000A40001348C4200D838B914606FF00B007B
:10271000BDE8F0834FF0FF34F7E7DFF8BCE0044694
:102720000021B94203F1030C04F104062CD3A942A1
:10273000274624D21F7801F1010CAC45264938BF49
:102740005B784FEAA70E28BF002311F80EE084F84B
:1027500000E0AC4501EB131E3CBF9B0003F03C03C3
:102760004FEA071707F0300738BFCB5C1EF8077039
:10277000677028BF3D23A3703D23E3703746381AA6
:10278000002310603B70AEE71CF8034C1CF8023CC1
:102790001CF8018C4FEAA40924011EF8099006F8E0
:1027A000049C04F030040EEB13199B0019F804404C
:1027B00006F8034C03F03C030EEB981408F03F08B6
:1027C000E35C06F8023C1EF8083006F8013C0331D1
:1027D00034466346A5E700BFA3F000002DE9F043AF
:1027E000DDF81CE0DFF82C8100273C463D467545AE
:1027F0001FD3E4BB14600020BDE8F08301367645AA
:1028000033D013F806C0BCF1200FF7D0AEEB0609A9
:10281000B9F1010FA6EB05050DD0BCF10D0F0AD1E2
:1028200003EB060999F80190B9F10A0F6ED1751CF6
:10283000DDE72E46E3E7BCF10A0FF8D02DB9BCF175
:102840003D0F05D10137022F0DD96FF01500D3E7E9
:102850001CF0800FF9D118F80C507F2DF5D03F2DCA
:1028600001D8002FF1D10134E1E73546C1E704F08A
:1028700007064FF0060CE4080CFB06F60CFB04F40C
:102880000736E41B04EBD60470B18C420CD8002749
:10289000DFF880E0DFF880801D44014603263C46D7
:1028A0009D4205D10C1AA5E714606FF00B00A3E759
:1028B00013F8019BA9F10A0C5FFA8CFCBCF1160F0E
:1028C00004D848FA0CFC1CF0010FE9D01EF809C02E
:1028D0000134BCF1400F08BF013E0CF03F0C042C4A
:1028E0004CEA8717DCD17EB13C0C012E0C7002D172
:1028F00001310024D4E7022E4FEA17244C7016BF92
:102900008F7002310331F4E73446C9E7002DA2D0BD
:102910009BE700BF23F00000F6FFBFFF2DE9F04763
:10292000058B04462807904611D4022905F00705B7
:1029300040F0CC80204608F0F2FF78B10138218BBE
:10294000042811D8DFE800F0C2106D859500012938
:102950000CBF45F0100545F02005258388F311884C
:10296000BFF36F8FBDE8F08701F0070AAA4500F0BA
:10297000A5800027B9463E46A368002B00F0BC8026
:1029800041F00801218388F31188BFF36F8FA1689C
:10299000002900F0BA800D68002900F0B680D1F857
:1029A0000480334652462046C047002D76D02B681F
:1029B00029461D46F0E701F007035A1F012A1BD8DC
:1029C000002221F00701062B276889B2C4E9002202
:1029D00009D13B4603E0628B013262831B68002B06
:1029E000F9D141F002012183204608F098FF002828
:1029F0007AD041F0200176E0042B0AD121F00701C2
:102A000089B22183204608F08AFF10B141F02001ED
:102A10002183218B01F0070AAA454FD00027B94630
:102A2000AAE7236921F0070141F00601062DD3F83A
:102A3000009021832DD1B9F1000F3FD041F0080162
:102A4000218388F31188BFF36F8F3A492046C84726
:102A500029E021F00701236941F0040189B2042D26
:102A6000D3F804902183E6D000273E464FF0040AB5
:102A700082E721F00701236941F0050189B2052DA4
:102A8000D3F808902183D6D000273E464FF0050AA0
:102A900072E700273E464FF0060A6DE72B4687E7B0
:102AA000B9F1000FD1D1EFF31188202383F31288FD
:102AB000BFF36F8F238B23F008032383258BEA0654
:102AC0002ED525F01003238305F007056669218BB9
:102AD000002EBFF670AF00232768C4E9003321F051
:102AE000070141F001012183218B01F0070AAA456A
:102AF0004FF000097FF440AF002F9CD041F0080157
:102B0000218388F31188BFF36F8F002FC8D03D68F1
:102B1000394633465246204608F02DFF2F46F4E74B
:102B2000AB067FF51BAF25F02003238305F00705D7
:102B300000E700BFA3B90000014B0360002070470D
:102B400018EB000070B5114B1C680D46DCB1104B42
:102B5000196800238B4202DB6FF0010070BD224632
:102B600012F8106B864202D001331446F2E7E06897
:102B700010B96FF01200F1E70BF0F8FA0028F8D066
:102B80002C600020EAE76FF00C00E7E7140100205A
:102B900064EB000070B588B005460C46C0B26946CB
:102BA0001646FFF7CFFF00281BDB0098C8B143682B
:102BB0000293836822680195CDE903360023CDE9AD
:102BC00006230593C56809F069F86DB128460849E0
:102BD00001AA09F08AFC079808B9059B236008B090
:102BE00070BD6FF01500FAE76FF01200F7E700BF55
:102BF0003FBD0000F0B40C4B0C4E5F6A0C4BB3426F
:102C000003D36FF08500F0BC70475D68BD4209D307
:102C10001C693CB195F802C00579AC4502D1234648
:102C2000F0BC18472433EAE7B0130020A8030020C3
:102C3000840300202DE9F047134CDFF85080DFF8C3
:102C4000509005460E461746444503D36FF0850065
:102C5000BDE8F0876268D9F824309A4212D3A3699C
:102C600083B190782979884205D13A463146284681
:102C7000BDE8F04718475279012A03D13A46314658
:102C8000284698472434DFE784030020A803002067
:102C9000B01300202DE9F0410B4CDFF830800546E1
:102CA0000E461746444502D36FF0850009E063697C
:102CB0000BB92434F6E73A463146284698470028AF
:102CC000F7D1BDE8F08100BF84030020A8030020F5
:102CD00010B5044609F0E8FA10F1780F00D050B9A9
:102CE000054A204609F04DF8D2F8C43023EA000323
:102CF000C2F8C430002010BDB013002002480822E2
:102D0000002109F08FBA00BF6B14002070B50B4B87
:102D10000B4CA34201D3002070BD196A1E7F002214
:102D20000439D5B2AE4201D82433F2E7013211F8AA
:102D300032508542F5D10120EEE700BF8403002028
:102D4000A803002008B509480378C3F341130A33E8
:102D500050F823303BB100F1080200F11001984710
:102D6000C043C00F08BD1846FCE700BFB0130020E9
:102D700004282DE9F14FDFF8989004460F4616D04D
:102D800001282DD1DFF88C8098F8B93043B300F0DA
:102D90000FFE214D4D4520D2D5F820B04FF0000A4E
:102DA0002B7F5FFA8AF6B34204D82435F2E7FFF7A7
:102DB000A5FFE7E70BEBC6060AF1010A307909F037
:102DC00073FA0246307908F0DCFFD8F8C430002AE4
:102DD00023EA0003C8F8C430E2DA002388F8B930E7
:102DE0000D4D4D4508D30B4B1B6A6BB13946204640
:102DF00001B0BDE8F04F1847EB681BB13A462146D9
:102E0000284698472435ECE701B0BDE8F08F00BFB5
:102E1000A8030020B01300208403002073B5C4B2BF
:102E200063060D468DF8074007D02046FFF76EFF7A
:102E300078B10D4B93F8BA0058B10B4E204655B1FE
:102E400002F08CFEF3691BB10DF1070108209847D1
:102E5000012002B070BD02F0A9FEF369002BF7D08B
:102E60000DF107010920F2E7B013002073B5867851
:102E70008DF80060037942791C4C43EA0223ADF8D7
:102E80000230C378304603F003038DF8043008F0B5
:102E900078FFD4F8C430184205460BD0304600F015
:102EA00069FD3046FFF714FF0BF0E6FA10B99620E3
:102EB00007F0B0FA684602F02DFE10F1780F03D04B
:102EC00010B1002002B070BD9DF8000002F0AAFE13
:102ED00010F1780F01D00028F3D1D4F8C4300120CC
:102EE0002B4384F8B900C4F8C430EBE7B0130020DA
:102EF0002DE9F047924DAB6904460E461746C3B91B
:102F0000207800F01F00012876D0022800F0DC8035
:102F100000BB94F900103A68637800292EDA062B7A
:102F20000CD0082B25D0ABB95370012313700223AA
:102F300003E198470028E3D100200DE06388190AD7
:102F40000A1F012A8C4605D9072903D8DAB26B6A11
:102F50001C781CB96FF01500BDE8F0875D786545F9
:102F600003D1824200F0E48001302344F0E71B7873
:102F7000E3E095F8BA3013700123DEE0052B11D0A1
:102F8000092BE7D163886E6A002B32D1FFF7B6FEBA
:102F9000638885F8BA30EB69002BCDD069490320EE
:102FA0009847C9E7A07802F0A3FD0028C4D0D1E774
:102FB0007378042B10D0052B11D0022B04D1777914
:102FC0006388BB4208BF012033781E443378002B4E
:102FD000EED10028BED0D9E796F80380F4E76388E5
:102FE000BB42F1D1B8F1000FEED13046FFF73EFF02
:102FF000EAE7FF27B846E9E795F8BA30D7F800C006
:10300000002BA7D06F6AA28894F804E03B4618789A
:1030100000289FD05978022904D193F80480F04504
:1030200000F292800344F2E78CF800308CF8013013
:10303000316081E71F4493E00B2B8BD100264FF0CA
:10304000FF08C146B24606E07B78042B0FD0052B63
:1030500021D03B781F443B78002BF5D1EB6913B1AD
:10306000514607209847002E7FF466AF72E797F825
:103070000280A38897F803909845EAD16388994520
:10308000E7D1B8F1070F1CD805EB0803BA4683F85F
:10309000BB900126DDE7A3884345DAD1A3784B45F1
:1030A0000AD0BE78304600F065FC3046FFF710FECF
:1030B000B0FA80F67609CCE73846FFF7D7FE064629
:1030C000C7E7BA460026C4E794F900206378002ACF
:1030D00018DA002B7FF43EAF24793F6863060AD0EC
:1030E0002046FFF713FE00283FF434AF95F8BA30BE
:1030F000002B3FF42FAF3946204602F077FD002326
:103100007B7014E7012B08D0032B7FF423AF638877
:10311000002B7FF41FAF012103E0618800297FF4B9
:1031200019AFA088FFF77AFE00287FF405AF11E7FA
:1031300002293B607FF41BAF5B883360FCE600BF75
:10314000B01300206A14002094F90000637800286E
:10315000BFF672AF002B3FF467AF0A2B7FF4FAAED5
:103160003B78002B3FF4F6AE797804297FF462AF08
:10317000B9788A427FF45EAF072A96BF52190023BE
:1031800092F8BB308CF80030F6E600BF70B5164DF3
:1031900095F8B830FBB102F08BFC002822DB00F080
:1031A00007FC0024D5F8C430E340DA07E6B214D4B3
:1031B000D5F8C43004F11002D340DB0705D546F042
:1031C0008000FFF785FD00280CDB0134102CE9D1CD
:1031D000002385F8B830002004E03046FFF778FD82
:1031E0000028E5DA70BD00BFB013002013B5164CFF
:1031F000237DF3B9E268A168019201AB802008F059
:10320000CEFD019AA3681344A360E3689B1AE360B0
:103210006BB962B12369E2889A4208DD94F8C8204C
:1032200093FBF2F102FB11330BB90123237502B0BA
:1032300010BD00231A4619468020237502B0BDE850
:10324000104002F019BD00BFB013002030B585B0AA
:10325000002302460D460193002858D1002935D19C
:1032600008220B460DEB020109F037F8002804DABA
:10327000802002F073FC05B030BD2A4C029A226017
:10328000039A626004F13802A2609DF90820BDF83B
:103290000E302575002AC4E903550ADB802B04D9BA
:1032A000802002F05BFC0020E3E713B1C4E90333A4
:1032B000E1E7FFF747FD0028DAD0E28823699A4268
:1032C000D4BFE260E360FFF791FFD4E7154CD4E987
:1032D0000215002D01AB04DC08F0FFFF0028CADA5C
:1032E000C6E72A4608F0F9FF0028D9DB019AA3684F
:1032F0001344A360E3689B1AE360002BBBD104F185
:103300003803A360FFF71EFD0028DCD1B0E780285A
:10331000B1D1044BDA68002AD5D11B7D002BD2D164
:10332000A9E700BFB0130020054B064A9A62064A7F
:10333000DA62064A1A63064A58629A6100207047A8
:10334000B0130020F12E0000F52B0000952C00009A
:10335000352C00002DE9F3410446474D47484FF016
:10336000FF334FF0FF3206F0B5FA95F8B830002B76
:103370007BD16B6A83B142482C62E8616E6A02F0CD
:1033800095FD02F063FB041E10DA3C4806F01AFBC0
:10339000204602B0BDE8F08100F0BEF8FFF7C4FFA0
:1033A0006B6A002BE7D14FF0FF34EEE700F022FB11
:1033B000041EEADB7378012B5AD1F379002B57D026
:1033C0000026684685F8C830ADF802308DF80460F4
:1033D0008DF8006002F09EFB041ED6DB8027684655
:1033E0008DF8007002F096FB041ECEDB25493046B6
:1033F00002F048FD041EC8DB2249384602F042FDB7
:10340000041EC2DB204CDFF8848044451AD3002020
:1034100002F008FC041EB8DBD5F8C430802043F06D
:103420000103C5F8C43002F0FDFB041EADDBD5F886
:10343000C43043F48033C5F8C430012385F8B83074
:103440000024A2E7276A0026227FF3B29A4201D81D
:103450002434DAE707EBC30257F83310107902F08F
:1034600011FD01360028EFD09DE76FF077048CE75F
:103470006FF0150489E700BFB0130020AC020020F4
:10348000712D00004D32000084030020A8030020AD
:1034900030B51F4B8BB005AA03F1100518685968A9
:1034A000144603C40833AB422246F7D11B7823707D
:1034B0001022002101A808F0B5FE122200211548B3
:1034C00008F0B0FE102101A809F090F800281BDDDB
:1034D0000828B8BF0820093801AB0E491A18002087
:1034E00012F8013F0AAC04EB131403F00F03283366
:1034F0006B44013014F8144C13F8143C0C70082879
:103500004B7001F10201EBD102480BB030BD00BF9E
:10351000E3F00000E34500202DE9F04F754B93F8F0
:1035200000B087B0BBF1000F03D0734807B0BDE80F
:10353000F08F714C00264FF0011AB0463546B14667
:1035400023783BB96D4B02349C42F3D1694A012385
:103550001370EAE76378052B1BD8DFE803F08E03CE
:10356000C88E1D39402304A88DF810B0ADF8123074
:103570008DF814B008F083FE40B1082304A8ADF81C
:10358000123008F07CFE08B1ADF812B0BDF8123070
:10359000E37123781C44D3E7E378002BF9D1A378B7
:1035A00063B108F101085FFA88F8F2E76A689442AB
:1035B00007D024359D42F9D30020B7E7504D514B39
:1035C000F8E7AB68002BECD0414620469847E8E787
:1035D000002DF1D000222B7F9A42EDD2296AA078EB
:1035E00001EBC2010B79984201D00132F3E70127C8
:1035F000E07800F003008DF81400207994F805C0FD
:1036000040EA0C20ADF8120094F902000028FBB249
:1036100028DA07F110004FF0010C0CFA00F010EA64
:103620000A0F26D143F080008DF8100004A8CDE9E0
:103630000213019208F023FEDDE90121039BC0B9CA
:103640009DF81020A27012F0800F18BF10330A717D
:1036500018BFDBB24FF0010214BF9A40BA404AEAE9
:10366000020A96E70120B84010EA0A0F01D1184675
:10367000DAE70137102FBBD1B7E7032E1FD1FFF7D1
:1036800007FF074678B108F094FD019058B11E4835
:1036900008F08FFD019B984202463946A8BF1A46A2
:1036A000A01C08F0B4FD23786FF00201E218091B9A
:1036B00004EB5303D14213D50136F6B269E7002E6D
:1036C000F1D1B9F1000F3FF477AFA4EB090389F80A
:1036D0000230C3F3072389F8033089F80480EBE74D
:1036E00002F801BC13F8010902F8020DE2E7A14655
:1036F0004FE700BFE2450020E002002083030020E6
:1037000084030020A8030020E3F0000010B5094B5B
:1037100000211A461C78844204D15C6814B102EB83
:10372000811010BD0131042903F14003F2D10020C2
:10373000F7E700BF7C1400202DE9F34150F8283C46
:1037400010F82C6C103304460AD1036950F8202C71
:10375000980736D5D2B9590715D5002344F8283C27
:1037600054F8283C10330BD054E9077554F8148CE6
:103770000AF082FE00284FD02E4821460AF060FE53
:1037800002B0BDE8F08143F00403236154F8241C27
:1037900001AB304608F003FB10B16FF01503DDE715
:1037A000019A54F8243C134444F8243C54F8203C37
:1037B0009B1A44F8203C54F81C3C134444F81C3C2D
:1037C000CEE754F8241C01AB304602F0D1FA0028B1
:1037D000E3D1019D54F8243C2B4444F8243C54F894
:1037E000203C5B1B44F8203C54F81C3C2B4444F820
:1037F0001C3C002DB1D0304602F05EFBB5FBF0F36F
:1038000003FB1055002DA8D154F8203C002BA4D068
:10381000304602F0F5FAA3E744F8180CA4F11000C2
:1038200006F03EF9002DABD0424639463046A84757
:10383000A6E700BFA80300204B1E012B73B5064668
:103840000D460FD8FFF762FF044668B9012D09D174
:1038500001AB01220DF10301304602F089FA019B10
:10386000002BF5D102B070BD0AF006FE04F12C0168
:1038700008B1012D05D1084602B0BDE87040FFF740
:103880005BBF034802B0BDE870400AF0D9BD00BF7D
:10389000A80300202DE9F74F0646019115469846EA
:1038A00008F0C5FA044600285BD1EFF3118A202303
:1038B00083F31288BFF36F8FDFF8ACB000220023D0
:1038C000584606F011F970B9DFF8A090A70109EB8E
:1038D0008414636813F1100F14D10193584606F055
:1038E000DFF8019B06E00134042C0BF1400BE5D11D
:1038F0006FF00B038AF31188BFF36F8F184603B084
:10390000BDE8F08F019B2061C4E902350C9B636127
:103910000D9BA36130466FF00F0309F80760C4F8F0
:103920003C80636002F0C8FA58B1304602F0C4FA35
:10393000B5FBF0F303FB10551DB1E36B43F004033B
:10394000E36318F0020F07D007F12C01084849443F
:103950000AF076FD0023CDE7304602F051FA034627
:10396000C8E76FF00F03C9E7981400207C1400200B
:10397000A803002010B5EFF31184202383F31288ED
:10398000BFF36F8FFFF7C2FE50B14368103307D10A
:103990006FF08B03436000F12C0104480AF050FDE6
:1039A00084F31188BFF36F8F10BD00BFA803002000
:1039B000F8B50E4C04252027EFF3118687F3128803
:1039C000BFF36F8F6368103307D16FF08B03084824
:1039D000636004F12C010AF033FD86F31188BFF314
:1039E0006F8F013D04F14004E6D1F8BD7C14002046
:1039F000A803002070B50A4C0A4E00253146204627
:103A00000AF002FD0122A4F11000114601350AF06E
:103A1000BFFC042D04F14004F0D1002070BD00BFB4
:103A2000A81400203937000070B504460E4601790D
:103A30001248154608F0D7F9E8B194F900206378E8
:103A4000002A11DB202B04D0222B09D06FF0850037
:103A500005E029680722103808F0D9FB002070BD66
:103A6000638800F8093CF9E7212BEFD110380723D0
:103A700028603360F2E76FF01200F0E77C15002059
:103A800008B50146034808F0BCF910B1012300F85D
:103A9000073C08BD7C1500200169012381F84B30EB
:103AA0000B6833B191F849301BB1024808310AF074
:103AB000C7BC7047A80300200169012381F84A3080
:103AC0000B6833B191F848301BB1024808310AF055
:103AD000B7BC7047A803002070B5012382F84830B6
:103AE00013680D4614463BB192F84A3023B10E4894
:103AF00002F108010AF0A4FCD4F890301A699B681E
:103B00009A4205D17DB904F1180140F6CD4204E096
:103B100004F11801002DF8D00022BDE870400248E1
:103B2000002306F041B970BDA803002070B50569F7
:103B300095F89E00E0B195F89F30D3B985F84830EC
:103B4000EFF31186202383F31288BFF36F8FD5F82C
:103B5000900008F02EF8044686F31188BFF36F8FAB
:103B600005480022002305F1180106F01DF9204642
:103B700070BD0020FCE700BFA80300200D4A0346EB
:103B80000021A0F848101068C3F89400908892793A
:103B9000A3F8980083F89A2083F89C1083F89B1070
:103BA000A3F89E1083F8A010402203F14C0008F007
:103BB00039BB00BFC8EA0000F0B5D0F88C305B68B4
:103BC0001B6A1F7D85B00446384608F030F906466A
:103BD000F8B994F88630E3B1A06F4FF4806203A97E
:103BE00008F006F80546A0B18306A4F1180308BF43
:103BF00000F1FF3584F830600193074B039900937F
:103C00002A4602233846FFF745FEA06F294608F0F2
:103C10000FF805B0F0BD00BFD93A000010B5046937
:103C20000023C4F8A8300C4BC4F8A400596804F170
:103C3000A80269B9C3E9002204F1080007490AF0A3
:103C4000E3FB04F1180006490AF00AFC002010BD4D
:103C50000A605A60F0E700BF7C15002059BE0000E2
:103C6000B93B000030B54FF40033426805690D4C94
:103C700085B042F2A100CDE90103002385F89D3013
:103C8000106AADF80C1000790A2201A908F087F833
:103C900095F89D3023B901200AF063FA013CF7D171
:103CA00005B030BDA186010073B504698DF8071019
:103CB000002384F848302025EFF3118685F312881D
:103CC000BFF36F8F0122D4F890000DF1070107F0C8
:103CD00070FF86F31188BFF36F8F01280AD00AF0B6
:103CE000CBFB10B994F8A1306BB9094B1A780AB91B
:103CF00001221A702122002304F11801054806F060
:103D000053F802B070BD0021212006F065FBD3E717
:103D1000F5450020A803002037B514460A1E0546C5
:103D200020DDD4F88C0004F14C0107F042FF0123A0
:103D300084F8493023683BB194F84B3023B11148E3
:103D400004F108010AF07CFBD4F88C104B684A6936
:103D50009A1ACB699B1A3F2B04D8012384F8A03010
:103D600003B030BD94F89E30002BF9D0064B009381
:103D700001940123402204F14C012846FFF78AFDFB
:103D8000EEE700BFA8030020193D0000F7B50D467F
:103D900001461D4808F01BF8044610B30646691E8C
:103DA00056F8A4395F6805291BD8DFE801F01C1A12
:103DB000031C222610F8061C99B9012300F8063CC2
:103DC0003B6A3246187BFFF7A7FF14F85C2C42B918
:103DD0003B6A187D0D4B0093019602231146FFF7B5
:103DE00059FD03B0F0BD304603B0BDE8F040FFF729
:103DF000C5BE012304F8053CF3E710F8053C002B91
:103E0000EFD00023F6E700BF7C150020D93A000070
:103E100037B5094D0949002400944FF0FF334FF4A2
:103E20008062284605F082FF054928460AF02AFBF1
:103E3000204603B030BD00BFA8030020C04E0020C4
:103E400001F1000008B5054807F037FD044807F008
:103E500034FDBDE80840034807F02FBD0AF100001B
:103E60003BF100006EF10000014806F07DBD00BF8F
:103E7000F8EB000038B5044618B90F4B0F485B68E3
:103E800098476168B1F5683F10D0B1F5680F0DD063
:103E90000B4DA9420AD011F46861206807D0014691
:103EA00008480AF0BEF900232360656038BD14227B
:103EB00008F0B8F9F9E700BFD40100209CF1000038
:103EC0002C5F5CA9841A002008B520B34368B3F5C1
:103ED000683F10D101220368BFF35B8F53E8001FD6
:103EE000002903D143E800200028F7D1BFF35B8FFE
:103EF0000DD1002008BD094A93420AD000684FF056
:103F0000FF324FF0FF3305F0E5FC0028F1D0044804
:103F1000F0E70448EEE76FF4E040EBE72C5F5CA9C4
:103F2000E98FFFFFEA8FFFFF08B5D8B14368B3F50B
:103F3000683F10D100220368BFF35B8F53E8001F76
:103F4000012903D143E800200028F7D1BFF35B8F9C
:103F50000BD1002008BD074A934208D0006805F045
:103F600031FDF6E76FF4E040F4E70348F2E7034879
:103F7000F0E700BF2C5F5CA9E98FFFFFEA8FFFFF2E
:103F800010B5044618B91D4B1D485B689847636817
:103F9000B3F5683F2FD0B3F5680F2CD0194A934280
:103FA00019D1236803BB18484FF0FF324FF0FF339D
:103FB000214605F061FC08B923681BB90F4B134873
:103FC0005B68984720681422002108F02BF94FF411
:103FD0006863636008E0B3F5683F0DD83A2B03D0FF
:103FE00040F6BA629342DED120680AF052F9636863
:103FF00043F03A03636010BD054AF3E7D4010020A3
:104000009CF100002C5F5CA9841A0020C2F1000022
:104010003A00003A08B506490648402314220AF03F
:10402000F2F8BDE808400449044806F00FBD00BF9F
:1040300084150020841A002000EC000014EC00001D
:10404000F7B5224E30688368DB6B03B19847306860
:104050008368DB6A002B31D11D4C1E4D30688368AC
:104060001B69002B2DD001220DF107019847012873
:1040700027D1236843B92B681BB369681A682A6083
:104080008B4208BF6A602360134A9DF807001188BD
:104090007F2904D823680B444F1C178018720A2804
:1040A000DCD123681188596000200C4918604D68E4
:1040B0004DB9C1E9003310802060CEE79847002851
:1040C000CAD103B0F0BD2B604B60F4E7F81E0020AE
:1040D000A01A0020B01A0020E02C0020A81A00200E
:1040E00010B5044B044618688368E1B25B689847D2
:1040F000204610BDF81E0020F8B5054616460846B5
:10410000EFF31187202383F31288BFF36F8F1B49CE
:104110000B684BB11A4C62689A4205D000221A60B3
:10412000626862B9C4E90033164A136853B987F369
:104130001188BFF36F8F0B6018463360F8BD1360B2
:104140006360F1E7D2F804C01C681460634508BFDF
:10415000546087F31188BFF36F8F5C680B60A042D7
:10416000D8BF00F1FF3403F108012246284608F0C9
:104170004EF800232B55601C0123DEE7A41A002013
:10418000B01A0020A81A002037B52449244A002379
:10419000C1E90033C2E90033224A1C464868146072
:1041A00088B9C1E900220133082B02F18802F5D158
:1041B0001D4D1E48286009F0D9FF38B94FF0FF3473
:1041C000204603B030BD02604A60ECE70020FFF7F4
:1041D000C1F804460028F1D12868836823B11B6C1C
:1041E00013B113492246984728688368DB6A0BB1EC
:1041F000984748B1286883681B69002BFAD00122D0
:104200000DF107019847F4E70A4B286800221A804D
:1042100083681B6A002BD3D09847D1E7B01A0020DF
:10422000A81A0020B81A0020F81E002010E900008B
:1042300041400000E02C00202DE9F043DBB041F2CA
:104240000443ADF80C3040F60613ADF81030DFF83B
:104250000C91434BD9F800101B68424EA3EB0608A3
:104260000B785A1C62F302030B7098FA98F34B8098
:104270008B8800255BBA8B804D700822284607F09A
:104280005FF831464246ADF8140007F059F81FFABE
:1042900088F440BA04F10A035BBAADF814000222B4
:1042A0000DF1160107A80227ADF8163007F0AFFF91
:1042B000D9F80010ADF8167008220DF11E0007F0B5
:1042C000A6FFBDF81600083007AB80B23146ADF846
:1042D00016004246184407F09AFFBDF81630224EE9
:1042E0001C44A0B207AB3A46ADF8160005A9184425
:1042F00007F08DFFBDF816303B449BB2ADF8163089
:10430000009306AA07ABBD212AA8FEF7E7F9174FCD
:10431000069BADF816302C46BDF81630A34202DCE1
:104320005BB0BDE8F083336802215B68A4B904A8E0
:104330009847BDF8165033682D1B7C2DA8BF7C25EF
:104340002AAA101929465B689847336801215B68DF
:1043500038462C449847DFE703A8E9E75C1F0020B4
:10436000141F0020F6450020601F00206CF10000A3
:1043700038B50B4C05460A21204609F0DEFE022224
:104380000849204609F0CCFE2946204609F0B1FE36
:1043900020460A2109F0D9FEBDE83840FFF74CBF9E
:1043A000141F0020EFF100002DE9F047D4B005AE56
:1043B0000DF1180807AD4FF0FF340B463460C8F814
:1043C00000402C60012100240246CDE90144009107
:1043D00030A80421CDE9084409F0BDFB2146402264
:1043E00020A807F01FFF8A4B1C9305231D93894BC0
:1043F0008948CDE91E38894B2193894B2393894BFA
:104400002693894B0321CDE92B01CDE92835CDE950
:104410002D3604220AAC279109AB1CA930A82292A0
:10442000249407F02CFE20B303240A217F4809F0CE
:1044300084FE7F497D48022209F072FE7B482146B6
:1044400009F057FE4CB974497848032209F068FE18
:10445000784B7648196809F056FE0A21734809F02E
:1044600074FEFFF7E9FE089807F018FC54B0BDE8A9
:10447000F08733685A1CD4E90074D5D0002FD3D00C
:104480006D4A33B9D8F80010B1F1FF3F18BF0B46A1
:10449000136000211068FDF73FF808A9C0B2FEF7CD
:1044A00051FB0028C0D13368624E002B4AD1DDF8A1
:1044B000208033604046D8F8089006F0F3FC5F4A4D
:1044C0000146404606F026FC002840F09F802B68FD
:1044D0004B45A9D85A4A10605A4A13603268584D61
:1044E000089829682244013A07F0AAFD00282860AC
:1044F0009ADB0898DFF84C9107F013FCB4FBF0F35B
:1045000003FB10403368C5B2651B1C44D9F800306A
:104510009C4238BF00205FFA80FA089807F001FC3F
:10452000012805D9089807F0FCFB013807424DD156
:10453000316808982B463A4607F0C6FB00287FF4FE
:1045400073AF30E03268934201D000246DE73D4AFA
:10455000126823449342C1D966E7A845089888BFEA
:104560005FFA85F807F0E4FB402201460CA807F04B
:1045700059FE424639460CA807F049FE31680898B2
:1045800043460CAA07F0A0FB044600287FF44DAF79
:104590003368434433604744A5EB0805089807F0A7
:1045A000C0FBA842D9D9BAF1000F12D13368D9F8AB
:1045B000002053442B4493423360C6D11F4B0898CC
:1045C0001A68114607F03CFDC40F2EE74FF0400873
:1045D000E4E7089807F0ACFB082201460CA807F0B6
:1045E00021FE524679190CA807F011FE089F316888
:1045F00038466C1807F095FB0CAA0346214638464E
:1046000007F062FB00287FF40FAFCFE701240CE72F
:10461000F2F1000049DE000001F20000F8F10000B4
:1046200053DE0000FDF100004FDE0000141F0020EB
:10463000EFF100000C1F0020101F0020041F0020BD
:10464000001F0020FC1E0020F0B50C68164F174B11
:1046500085B002380D46C4F58061009003AA381970
:104660000131FEF7BBF80446D0B92B68039A134416
:10467000022B2B6011D93E8876BAB6B2023B9E421D
:104680000BD13246B91C06F05BFE30B9022E04D9BC
:104690002B689A1E2A60FC540124204605B0F0BD08
:1046A0004FF0FF34F9E700BF774600207A4A002038
:1046B00007B500230093044A04488023022109F02F
:1046C00046FD03B05DF804FBF6450020141F0020F2
:1046D00030B50729A1B0044667D9037813F0050F58
:1046E00063D143885BBAA1F108059BB2AB425CD3AE
:1046F0005A4B186083885BBA8380FFF7D9FFA08884
:10470000012840F09780E37943B1012B00F08A80C3
:10471000082021B0BDE83040FFF72ABE217811F013
:104720000704F5D101464E4809F007FD06224D4920
:104730004B4809F0F5FC0521494809F0FAFC4A4BC1
:10474000214620461D68FCF7E7FE07A9C0B2FEF728
:10475000F9F90446F8B920230DEB03020146079846
:1047600007F09DFA414B089A9A420DD140230193DC
:104770006B440093CDE90344079B029408AA2146A9
:104780002046FCF7E3FE0546394B07981B68AB4211
:104790000DD007F083FA0521314809F0D2FC012140
:1047A0002F4809F0D2FCFFF747FD21B030BD07F0DC
:1047B00075FA14212A4809F0C0FC04222D49284822
:1047C00009F0AEFC0021264809F09DFC2A49244846
:1047D000072209F0A5FCBDF83630019340219DF871
:1047E00035300093254A9DF834300DEB010000F080
:1047F00039FD0E9B4BB1421E3E2A06D810ACC0F1CB
:1048000040011F4A204400F02DFD10A807F0D1FC04
:1048100010A90246124809F083FC1421104809F03F
:1048200094FCB8E7294604F1080021B0BDE8304007
:10483000FFF7BABD00287FF46BAFE379012B3FF49B
:1048400068AF052B7FF464AFFFF792FD4FF4005083
:10485000002105F0C1FD0120FDF72AFF5C1F0020AB
:10486000141F002005F20000B40000203DB8F396AC
:10487000480700200CF2000011F2000019F20000BD
:1048800025F200002DE9F341274FDFF8A080284EE4
:1048900001233B70274B00240546009418603B78A9
:1048A00013B902B0BDE8F081234BC4F58061C3F8B1
:1048B0000086C3F80486C3F80886C3F80C86C3F8DC
:1048C0001086C3F81486C3F81886C3F81C862B68B4
:1048D00001AA0131301998470028019B01DC002B07
:1048E000DDD004442BB940F201439C42D7D10024CF
:1048F000D5E73378062B09D17378092B0BD1002328
:1049000000936946A01EFFF79FFE04E0042B02D12E
:104910007378142BF5D00128E9D1009907480239A2
:10492000FFF7D6FEE3E700BF764600203546526E1D
:10493000784A0020601F00200000014079460020D6
:1049400030BFFFF7FDBF00BF074A936893F90E1011
:10495000002907DB526993421FBF044A536843F0A2
:1049600080535360704700BFD02A002000ED00E064
:1049700070B5264B15469A6A12F0100F9A6A14BF4A
:104980001124102412F0080F9A6A18BF12249207FB
:1049900006460AD5586B9A6A140634D519B19A6A34
:1049A00022F080029A62132401E06FF01500174B89
:1049B0009A6A12F0010F9A6A18BF142412F0200F9D
:1049C0009A6A18BF1524D20602D49B6A9B070AD59F
:1049D0000E4B5B68190506D5314600F095FA10B10B
:1049E00080F309880224094B9A6A920642BF5A6AE8
:1049F00022F400525A629A6A42F0FF029A6200233D
:104A00002B70204670BD6FF01500CCE700ED00E084
:104A1000134B9A6A12F0007F9A6A14BF1E201D2061
:104A200012F0807F9A6A18BF1F2012F4002F9A6A32
:104A300018BF212012F4802F9A6A18BF222012F486
:104A4000003F9A6A18BF232012F4803F9A6A6FEAE7
:104A500002426FEA12429A6218BF2420704700BFD8
:104A600000ED00E010B5194B0246986A9C6A10F4FC
:104A7000805F14BF1720162014F4006F9C6A18BFC3
:104A80001820A40509D5986B986A000404D51AB1BA
:104A90009A6A22F400429A6219200C4B9A6A12F424
:104AA000806F9A6A18BF1A20D2050CD49B6A13F43F
:104AB000005F18BF1C20054A936A43F47F4393624A
:104AC00000230B7010BD1B20F5E700BF00ED00E0D8
:104AD00070B5454B5B688AB00546C3F308030026F2
:104AE00086F31188BFF36F8F02F07F40B0F17F4FE4
:104AF00011D102F00C0008280DD010074CBF0D4654
:104B000001260022033B8DF80720032B05D8DFE8A0
:104B100003F01E5D615A3546F3E700249DF8073027
:104B20009BB92022294602A807F071FB099B002EA1
:104B300054D0C3F3080222B96FEA53236FEA432328
:104B4000099302A9204607F0ECFA0AB070BD264B83
:104B5000DA6A9107E1D4DA6A002ADEDBDA6A520007
:104B6000DBD55A69A96942F480725A61BFF34F8F4D
:104B7000BFF36F8F5A6931F8021C22F480725A61B8
:104B8000BFF34F8FBFF36F8F4DF6027291420AD081
:104B90009A6AD2B24AB10DF1070201212846FFF705
:104BA000E7FE0446BAE72C68B8E79A6A12F47F4F2A
:104BB00005D00DF107010120FFF754FFF1E79B6AD3
:104BC000B3F5803FA9D3FFF723FFEAE70DF1070212
:104BD0000021E3E70DF107010020EDE723F4FF7367
:104BE00023F00103ACE700BF00ED00E0044B5A697D
:104BF00042F010025A615A6922F008025A61704765
:104C000000ED00E0EFF30880EFF3098101B5724693
:104C1000FFF75EFF01BD00BF002080F31488BFF3E3
:104C20006F8F03F0A1FD00200D490860BFF34F8F87
:104C30000C4880F3088800F03DF8202080F31188AC
:104C400009484FF40461401880F30988EFF3148099
:104C50000221084380F31488BFF36F8F00F01CF922
:104C600094ED00E00089002040570020BFF34F8FF3
:104C70000549064BCA6802F4E0621343CB60BFF3F8
:104C80004F8F00BFFDE700BF00ED00E00400FA0514
:104C90000749D1F890200023C2F307221846934217
:104CA00000DB7047C1F89830C1F8A0000133F6E787
:104CB00000ED00E008B572B6002383F31388FFF718
:104CC000E7FF144B4FF0FF32C3F88020C3F8842075
:104CD000C3F88820C3F88C20C3F89020C3F8942030
:104CE000C3F89820C3F89C20C3F88021C3F884211E
:104CF000C3F88821C3F88C21C3F89021C3F894210C
:104D0000C3F89821C3F89C2162B6BFF34F8FBFF35D
:104D10006F8F08BD00E100E0084B9B6883420BD118
:104D2000EFF3058343B1064B5A6842F080525A6054
:104D30005A6A22F400425A6209F079BCD02A002053
:104D400000ED00E0094A93686FF00A01996708498D
:104D500058674B6843F080534B60002383F31188FE
:104D6000BFF36F8F9368986F704700BFD02A002001
:104D700000ED00E010B50446EFF31183202383F328
:104D80001288BFF36F8F094B58699860084B4FF03A
:104D900000625A600022436F426783F31188BFF3B9
:104DA0006F8F00F015F9204610BD00BFD02A0020FB
:104DB00000ED00E00B498A684FF030001044EFF33B
:104DC000098C80E8F01F74467046FFF7D3FFA646B3
:104DD00004498A6802F1300090E8F01F8CF30988DA
:104DE00070470000D02A00201EF0040F0CBFEFF324
:104DF0000880EFF30980816911F8021C0229FFD0B5
:104E000001B507F094F901BD40B2002807DB044A60
:104E10004109012300F01F00834042F82130704710
:104E200000E100E040B200280CDB4309064900F035
:104E30001F0020330122824041F82320BFF34F8F0F
:104E4000BFF36F8F704700BF00E100E0054B4209E0
:104E500000F01F0053F82220012303FA00F0104055
:104E6000704700BF00E100E040B20028A8BF00F199
:104E7000604001F10101B8BF064B4FEA4111ACBFE0
:104E800000F5614000F00F00C9B2B4BF195480F8BA
:104E90000013704714ED00E00B4A08B50B4B22F0ED
:104EA0007F029A60BFF34F8FBFF36F8FD3F88820D4
:104EB00022F47002C3F8882004F01AFC05F066FBA7
:104EC00000F05CF804F058FC0010000000ED00E079
:104ED00042F8203C009B42F81C3C0A49019B42F8E6
:104EE000183C029B42F8143C21F001014FF0807302
:104EF00042F8043C42F8081C0023203A026543674C
:104F0000704700BFD5B80000094A0346906870B1E9
:104F100013F1160F406E05D0A0F140029A4205D859
:104F2000834203D2814228BF00207047002070478F
:104F3000D02A002008B50B4B0E461546986000F0AD
:104F400047F82C4686F309884FF00000064B984737
:104F500020464FF000014FF000024FF00003034CD9
:104F6000204700BFD02A00204DC10000D5B8000066
:104F7000014B10221A61704700ED00E00448002345
:104F80002021C2180133302B82F80013F9D1704769
:104F900000E100E008B5EFF30583064A103B02EBA1
:104FA000C30152F8330049688847BDE80840FFF75D
:104FB000CBBC00BF38E90000024B034A0348012183
:104FC00000F076B800F003200000002024EC000080
:104FD000426E054B403A1A60044A4021C3E901126F
:104FE0001846012100F06EB8641F002000000B1568
:104FF000084AC2F898000B6823F01F03034343F0EC
:105000001003C2F89C308B6843F00103C2F8A03053
:10501000704700BF00ED00E02DE9F043DFF860804D
:1050200085B00E461F4604464FF00009B14523DA0D
:105030006068D8B13FB1411E08421BD11F2819D961
:105040002368194216D12368019307F0A2F8A368D8
:1050500003430393D8F89050C5F30725D0B2013D20
:10506000A84207D801A9FFF7C3FF421C09F10109B3
:105070000C34DBE76FF01502104605B0BDE8F08395
:1050800000ED00E0044B0522C3F89420BFF34F8FDE
:10509000BFF36F8F704700BF00ED00E0BFF35F8F7D
:1050A000024B0022C3F89420704700BF00ED00E0DF
:1050B00010B5034C01232278FFF7AEFF207010BD1E
:1050C000794E002008B50B4A00231278FFF7A4FFA1
:1050D00010F1160F07D0084A0021D2F89030C3F320
:1050E0000723984200DB08BDC2F89800C2F8A01060
:1050F0000130F2E7794E002000ED00E02DE9F043A9
:10510000534B544CD3F890302568C3F307239D428A
:1051100085B000F29A80FFF7C1FF00200C2685427F
:105120001AD14D4C4D4F25706846FDF705FDDFF84F
:105130002081DFF82C9106460025AE4213D123785A
:1051400043490020D1F89020C2F30722934276DB36
:10515000FFF798FF002042E0616806FB0011FFF7AF
:1051600047FF0130DBE7009800EB05114FEA051C13
:10517000CB683B40B3F5000F48D00AD8B3F5001F09
:1051800030D0B3F5800F36D0B3F5801F10D0013585
:10519000D3E7B3F1807F42D0B3F1007FF7D150F86D
:1051A0000C3088684A6806F0F4FF40F4802009E07B
:1051B00050F80C3088684A6806F0EBFF40F08850E1
:1051C00040F43020CDE901230390D8F890302078C6
:1051D000C3F30723013B98422AD96FF0150005B0AD
:1051E000BDE8F08350F80C3088684A6806F0D1FFBB
:1051F00040EA0900E6E750F80C3088684A6806F093
:10520000C8FF40F0007040F40030DBE750F80C308D
:1052100088684A6806F0BDFF40F08270D2E750F817
:105220000C3088684A6806F0B4FF40F08870C9E71F
:1052300001A9FFF7DDFE237801332370A7E7C1F84A
:105240009830C1F8A00001337CE74FF0FF30C6E78B
:1052500000ED00E030EC0000794E00200000F0FF8F
:10526000000008110CB410B586B009B90DF10B009F
:105270000024CDE9040109AB089A009404A905486B
:105280000393FCF7F3FF049B1C7006B0BDE81040CD
:1052900002B0704737C200000E4A0123C2F8403501
:1052A0004FF080424FF08051C2F87835D1F830018C
:1052B000082808D1D1F83411052904D80648415CE2
:1052C00009B1C2F838364FF080430122C3F8802577
:1052D0000020704700E0014038F2000020B1034B8D
:1052E000800143F001031847704700BFD0EA000077
:1052F0004FF08043D3F84036DB072ED54FF0102314
:10530000D3F8043303F00703072B26D1144A0123F3
:10531000C2F80435D2F80034002BFBD04FF0102136
:10532000D1F8043323F0070343F00403C1F8043336
:105330000023C2F804350A4AD2F80034002BFBD00F
:10534000BFF34F8F0749084BCA6802F4E06213436A
:10535000CB60BFF34F8F00BFFDE70020704700BF59
:1053600000E0014000ED00E00400FA05020600F054
:105370007F0312D5082B05D1010700F00F0306D5D6
:105380000E48704710F0780F12D100F00F034C2038
:1053900000EB43100A4B18447047082B05D1020755
:1053A00000F00F0306D50748704710F0780FF6D0CD
:1053B00000207047044800EB43107047BC200020D9
:1053C000701F0020DC210020DC2000200149024861
:1053D00009F036B8981F0020480400200146014813
:1053E00008F0CBBFD002002002480022002304F0C6
:1053F00025BB00BFD002002013B5124800F0E6FE26
:10540000114B98421AD1114804F012F800241048A8
:1054100004F054F80F49104800944FF0FF334FF454
:10542000806204F083FC0D490B4809F02BF80C480E
:105430000C4908F0E9FF204602B010BD6FF00400EF
:10544000FAE700BF4D5600000000AD0B4CF2000023
:1054500050EC000000530020480400203EF2000001
:10546000981F00206957000010B50E49BFF35B8FED
:10547000002351E8002F012A03D141E80030002821
:10548000F7D1BFF35B8F0CD151F8044C143920468F
:1054900006F022FB783004D12046BDE8104006F02B
:1054A000F7BA10BD901F002038B5002464F07F00CB
:1054B000C0B2FFF75BFF013406F0CAFE082CF5D13D
:1054C0000E4D0024E0B2FFF751FF036903B90561F7
:1054D000013406F0BDFE082C05F14005F2D1084864
:1054E00006F0B6FE074BD3F87C2212B9064AC3F881
:1054F0007C22064806F0ACFE002038BD00260020C5
:10550000BC200020701F002000220020DC21002091
:1055100010B5054CFFF768FF20B14168204608F040
:1055200080FEF7E710BD00BF4002002007B5002352
:105530000E48002201A904F09FF990B1FFF7E8FF9F
:105540000A480022002301A904F096F938B901980D
:10555000042340600374FFF741FFFFF737FF00208B
:1055600001E00198406003B05DF804FB40020020B8
:10557000022810B511D8094B1C5CFFF7D7FF60B1AA
:10558000002202740472FFF729FF054B93F82430C0
:105590001BB1BDE81040FFF719BF10BD49F2000074
:1055A000701F0020F8B5877806463846FFF7DEFE04
:1055B0003B06F578044612D5002D43D1FFF7B6FF20
:1055C000034600283ED00122A5770274032202730D
:1055D0009C60FFF703FFBDE8F840FFF7F7BE4DB151
:1055E000012D2FD1FFF7A2FF034658B3657705744D
:1055F0000573EDE7FFF79AFF20B3B278124B12F074
:10560000800F02F0080111D041B1D3F8A836E36051
:1056100001230374022303738460DAE702F00F02AC
:10562000142101FB0233D3F80836F0E711B1D3F8A7
:10563000A837ECE702F00F02142101FB0233D3F884
:105640000837E4E7F8BD00BF00700240F0B5064639
:1056500089B01422002103A806F0E4FD3378013B51
:10566000052B21D8DFE803F07A0314146A1603230C
:105670008DF814300024FFF759FF0346A0B10474DD
:1056800000F10802DDE9050182E8030018461DE08B
:105690000423EDE7B7783846FFF768FE837A0446BF
:1056A00023B1013B022B43D909B0F0BD3B06F5788D
:1056B00013D5002DF8D1FFF739FF03460028F3D0AA
:1056C0000122A5770274032202739C60FFF786FE15
:1056D00009B0BDE8F040FFF779BE55B1012DE3D127
:1056E000FFF724FF03460028DED0657705740573B5
:1056F000EBE7FFF71BFF07460028D5D00123037413
:1057000002230373846004F10C01B07806F001FEFB
:10571000134AE168B2F88C328B4206D95B1AA2F8C0
:105720008C3201F0A5F83846D0E7A2F88C52FAE79F
:10573000304609B0BDE8F040FFF734BF01A801F0E2
:1057400071F89DF80530052B04D19DF8043013F055
:10575000600FA9D0034B059301248CE702248AE74C
:10576000701F0020DC2000202DE9F043A74CDFF85B
:10577000A09285B08046FFF737FE064610B905B007
:10578000BDE8F08394F82530327C3BB9002A00F064
:10579000888071689E4808F044FDECE7042A44D8EC
:1057A000DFE812F07F000500020118014201337B9F
:1057B000B568032B39D8DFE803F0023F5C616F69FD
:1057C00008220021384606F02DFD924B9248D3F86E
:1057D00080243A70D3F884247A70D3F88824D3F8DC
:1057E0008C1442EA01227A80D3F89024D3F89414DE
:1057F00042EA0122BA80D3F89824D3F89C3442EAD2
:1058000003230822FB803946EA6006F000FD2B687E
:10581000687A0021984797F90030002B08DBFB8855
:1058200033B1A4F88C3201F023F871684846B2E72E
:105830000023A4F88C32F8E76B7F002BF5D02B7F88
:10584000002BF2D000276F774FF0FF3273482F778D
:105850004FF0FF3306F00FFD6B6901936B68CDE9E4
:10586000023701A9687A00F007FD6C4806F005FDD3
:10587000DBE72B680121687A9847D6E7AB7A6BB9EA
:10588000EB7F5BB965484FF0FF324FF0FF3306F016
:10589000F2FC00F0F3FF614806F0EFFC2B680221F8
:1058A000E9E7327A042AC0D8DFE802F05903236717
:1058B000730000F04BFC05460028B6D100F086FBD3
:1058C000BFF35B8F5649012351E8002F002A03D113
:1058D00041E800300028F7D1BFF35B8FA5D141F834
:1058E000085C41F8105CE0696361143906F079F8EE
:1058F0009BE7002565F07F00C0B2FFF737FD037A14
:1059000013B1407A01F01EF90135082DF2D194F857
:1059100054311BB194F8550101F014F90025E8B297
:10592000FFF724FD037A13B1407A01F00BF901353A
:10593000082DF4D194F874321BB194F8750201F07B
:1059400001F9002000F0E6FB012384F825302368EC
:10595000002B3FF46AAF00210220984765E700253D
:1059600084F8255001F054F8FFF77EFD2368002BE2
:105970003FF45BAF29460420EFE7002B3FF455AF1F
:1059800000F0EEFB2368002B3FF44FAF0021052011
:10599000E3E72268002A3FF448AF002B3FF445AF0D
:1059A00000210620904740E708F110054FF0FF3333
:1059B0004FF0FF32284606F05EFCFFF775FD2846E3
:1059C00006F05BFC58F8283C002B3FF42EAF00217A
:1059D0000120C2E794F874327BB1012584F8895222
:1059E00084F88852FFF7A2FD38B10E4A057405739A
:1059F0008260FFF7F3FCFFF7E9FC58F8283C002B26
:105A00003FF413AF00210A20A7E700BF701F00205A
:105A10004002002000700240741F0020A81F0020D8
:105A2000901F0020DC21002008F023F800F0F0FF98
:105A300000F0C2FAFFF76CFDFFF736FD08F012F830
:105A4000014800F0C3FBF0E64D56000038B5164D96
:105A500095F824402CBB05F1380008F01AFC2046CC
:105A600001F0C2F922460121E8612720FFF7FCF985
:105A700007F0F8FFFFF718FD044610B9012385F879
:105A800024300A4B1B680BB1FFF7A0FC4FF080439A
:105A9000D3F83834DB0702D50020FFF769FD204634
:105AA00038BD0024FBE700BF701F0020D00200209B
:105AB00010B50D484FF0FF324FF0FF3306F0DBFB1F
:105AC000FFF726FD00F042FB08B100F0A1FFFFF751
:105AD000CBFC07F0CEFF0548002480F82440383086
:105AE00006F0CBFB204610BDA81F0020701F002031
:105AF000074B93F824203AB193F82530002B14BFBC
:105B000000206FF0120070476FF01200704700BF66
:105B1000701F002038B5104B93F824300446C3B1F1
:105B200005782846FFF722FC10B96FF0150038BD44
:105B3000457223798372638843602078618810F00E
:105B4000080F02D14B1E0B42EFD106F0DDFB002007
:105B5000EDE76FF01200EAE7701F002038B5124B36
:105B600093F824200546CAB193F82530B3B1FFF766
:105B7000FDFB0446A8B1837A012B12D007D9023B62
:105B8000012B07D96369A3610020E06038BD00F0F4
:105B90007BFEF7E7284600F019FEF3E76FF01200EE
:105BA000F4E76FF01500F1E7701F002038B50E4BD9
:105BB00093F82420054682B193F825306BB1FFF7A6
:105BC000D5FB68B115F008040AD1284600F020FE84
:105BD000284600F0EFFF204638BD6FF01200FBE7CB
:105BE0006FF01500F8E700BF701F002038B50C4BB0
:105BF00093F8242005460C4662B193F825304BB14A
:105C0000FFF7B4FB48B144B1284600F0E7FD20702F
:105C1000002038BD6FF01200FBE76FF01500F8E7C9
:105C2000701F002070B5134E96F824300446C3B19F
:105C3000FFF79CFB0546B8B1230705D4204600F0CA
:105C4000E7FD204600F0B6FF2B7A83B901232B72C3
:105C500096F825300BB9002070BD204600F072FF89
:105C6000F9E76FF01200F7E76FF01500F4E76FF057
:105C70007700F1E7701F00202DE9F043DFF8E480A2
:105C80001E4698F8243085B0074689461546002BF5
:105C900061D098F82530002B5DD003065ED5FFF764
:105CA00065FB0446002859D0037A002B56D04FF0EC
:105CB000FF334FF0FF3208F1380006F0DCFAA37F23
:105CC0004BB108F1380006F0D8FA6FF00A0420460C
:105CD00005B0BDE8F083A37AC5B13BB30123A37738
:105CE0004FF0000801A93846CDE90195CDF80C80A8
:105CF00000F0C2FA1C4B984229D084F81E801EBBCB
:105D00006FF00404194806F0B8FAE0E7E27F02B148
:105D1000E577002BE2D100F0BDFD8742DED000F038
:105D2000ADFD124806F0A9FA0024D0E7B8F80A3011
:105D30009D42F0D26268B5FBF2F302FB1353002BD5
:105D4000E9D10123E377E6E7C6F80080D8E706B19A
:105D500035600024D6E76FF01204B8E76FF0150441
:105D6000B5E700BF701F00200000AD0BA81F00208A
:105D70002DE9F0411D46204B174693F824200E468E
:105D8000002A33D093F8253083B3030631D401B908
:105D90007FBBFFF7EBFA044658B3037A4BB34FF0DF
:105DA000FF3316484FF0FF3206F065FAE368BB4256
:105DB000984628BFB84646B93FB905B12B600F4891
:105DC00006F05BFA0020BDE8F081A169424630464A
:105DD00006F01DFAA3694344A361E368A3EB08033B
:105DE000E360002DEBD0C5F80080E8E76FF012000B
:105DF000E9E76FF01500E6E7701F0020A81F0020FC
:105E000070B51E4D95F82420034682B395F82520E1
:105E10006AB31B062ED4FFF7A9FA044650B3037ADF
:105E200043B34FF0FF334FF0FF3205F1380006F077
:105E300022FAE368B3B9012663692677A361637F19
:105E400083B1FFF773FB30B905F1380006F015FA9E
:105E50006FF00B0070BD067484600673FFF7BEFA26
:105E6000FFF7B4FA064806F008FA0020F2E76FF0F0
:105E70001200EFE76FF01500ECE700BF701F002085
:105E8000A81F002010B5084B93F824300C462BB106
:105E9000FFF76CFA28B10460002010BD6FF012000B
:105EA000FBE76FF01500F8E7701F0020014B18604A
:105EB000704700BF701F002008B5074B93F82430CF
:105EC00023B1FFF753FA20B1406808BD6FF012000C
:105ED000FBE76FF01500F8E7701F00204FF08053CC
:105EE000D3F83021082A06D1D3F83431052B04D851
:105EF000034AD05C7047002070470120704700BF04
:105F00004DF20000064B10F0800FA3F1D80208BF3D
:105F1000134600F00F00182202FB0030704700BF4C
:105F200018290020EFF31180202383F31288BFF398
:105F30006F8F0A4BD3F8001C032261B949F2753107
:105F4000C3F8001CC3F8142DC3F8001C80F311889B
:105F5000BFF36F8F7047C3F8142DF7E700E00640DA
:105F6000EFF31180202383F31288BFF36F8F0A4B66
:105F7000D3F8001C61B949F27532C3F8002CC3F89C
:105F8000141DC3F8002C80F31188BFF36F8F704786
:105F90000022C3F8142DF6E700E006404FF08053CE
:105FA000D3F83031082B02BF024B0022C3F81C2C5F
:105FB000704700BF00700240024A00231360024A8B
:105FC00013707047F82900207E4E002008B54A4B18
:105FD0004FF40062C3F80024FFF780FF08B1FFF719
:105FE000A1FF4FF08053D3F83031082B18D1EFF3D5
:105FF0001180202383F31288BFF36F8F3F4BD3F8B8
:10600000001CC02200296ED149F27531C3F8001C72
:10601000C3F8142CC3F8001C80F31188BFF36F8FF2
:10602000354B0122C3F80025D3F800241205FBD517
:106030004FF40062C3F800244FF08053D3F830319E
:10604000082B17D1EFF31180202383F31288BFF3BD
:106050006F8F2A4BD3F8001C002947D149F27532C3
:10606000C3F8002CC3F8141CC3F8002C80F311886B
:10607000BFF36F8FFFF732FF30B1FFF771FFFFF70C
:106080002DFF08B1FFF74EFF4FF08053D3F83031AA
:10609000082B194B0AD140F2E372C3F800284022C2
:1060A000C3F80428BFF36F8FBFF34F8F8022C3F86C
:1060B0001C250122C3F83025114B40F2FF121A6053
:1060C000104B00211960104B1970FFF767FF0F4B41
:1060D00019700F4B02221A70FFF700FF50B1BDE894
:1060E0000840FFF73DBFC3F8142C95E70022C3F822
:1060F000142CBBE708BD00BF0070024000E0064062
:10610000F4290020F02900207A4E00207C4E002047
:106110007E4E0020094B002210B51A70084A094B28
:10612000094C002808BF1346C4F800332720FEF7A7
:106130006BFE0123C4F8043510BD00BF7D4E002066
:10614000FDFFDF01FDFFFF0100700240034B1878E7
:10615000012894BF00200120704700BF7E4E002020
:1061600010B54FF0FF324FF0FF33154803F0BCFC81
:10617000EFF31181202383F31288BFF36F8F114B4C
:106180001B7803F0FF0483B10F4BD3F8002412F403
:1061900000720AD10120C3F82C05D3F82C05D3F8DE
:1061A0000004800502D5C3F82C25002481F3118852
:1061B000BFF36F8F024803F073FC204610BD00BF91
:1061C000C00200207D4E002000700240F8B51C4B3C
:1061D0001C7894BB1B4A106001221A7040F2FF1712
:1061E000264664F07F0514F0080FEDB214BF39465F
:1061F0004021284606F088F82846FFF783FE013440
:10620000092C867506730661EBD1002440F2FF1756
:10621000254614F0080FE6B214BF39464021304637
:1062200006F072F83046FFF76DFE0134092C8575D3
:1062300005730561EDD10448F8BD0448FCE700BFD3
:106240007E4E0020F82900200000AD0B0500AD0BAC
:10625000084B10F0800F00F00F0114BFD3F8102589
:10626000D3F8142501238B40134214BF01200020D2
:10627000704700BF007002402DE9F8430246EFF37B
:106280001187202383F31288BFF36F8F030703D195
:10629000184B1B78834229D1174B184E1C68356860
:1062A000104606F029F8E443A4B24FF001092C434C
:1062B00009FA00F814EA08041AD11046FFF722FE82
:1062C00080F80C90034607C91C6183E807009C75A1
:1062D0000B4B0C4845EA080580223560C3F80421C1
:1062E00087F31188BFF36F8FBDE8F8830648F7E79F
:1062F0000648F5E77C4E0020F4290020F029002014
:1063000000E100E00000AD0B0A00AD0B0B00AD0B8F
:1063100010F0080F074B06D0D3F8C00410F4803FEC
:1063200018BF0020704700F00F0000F5947053F87C
:1063300020007047007002402DE9F74FAB4BAC4E88
:10634000D3F85421DAB10022C3F85421D3F804134E
:10635000890214D58DF80420D3F82025ADF8062045
:10636000D3F8C034002B336814BF4FF001224FF430
:106370008072134333609F4B01A81B6898479B4B67
:10638000D3F8604134B10022C3F86021D3F86C44E3
:10639000C3F86C44D3F828214AB10022C3F828215D
:1063A000954B187805F0A8FF012383401C43DFF8C4
:1063B0004C82934F98F8005098F9009015F008011E
:1063C00043D1B9F1000F05F00F032EDA8D4A52F8D0
:1063D000230020B342F823101422534303F18043D7
:1063E00003F51C33D3F80836874A117803F001030C
:1063F0004B401370FFF7D2FD844803F051FB284651
:10640000FFF780FD837D032B37D1284605F074FF0D
:10641000012303FA00F03B6823EA00033B60DFF846
:10642000D4A101254FF006095DE0794A52F8230016
:106430000028F4D042F823101422534303F1804380
:1064400003F51C33D3F80837CEE7B9F1000F674BDB
:1064500009DBD3F85021002AE1D00022C3F85021F3
:10646000D3F8A837C0E7D3F82C21002AD7D00022D0
:10647000C3F82C21D3F8A836B6E7037BDBB928464E
:1064800005F03AFF012303FA00F03B68B9F1000F71
:1064900023EA00033B6001DA882DC0D106238DF882
:1064A000043000238DF80730524B8DF806501B68DE
:1064B00001A89847B3E7002DB1D14C4B0122DA6413
:1064C000ADE794FAA4F03268B0FA80F005FA00F370
:1064D0001A430F28326024EA03043A6840F39C8090
:1064E000134200F0A980002CEBD1404BD3F80021DF
:1064F0005AB1C3F80041474B1C703F4B1C7001233D
:1065000001933C4B01A81B689847384BD3F858219E
:10651000002A2ED00022C3F85821D3F80044C3F833
:106520000044E30508D53B4B01221A700223019376
:10653000304B01A81B689847A50508D5354B0022AC
:106540001A70032301932B4B01A81B689847600521
:106550000FD5304B1A7862B100221A70234B0122FA
:10656000C3F808259A6504230193224B01A81B68F0
:1065700098471E4BD3F85C3103B3244B9B681BB97F
:1065800098F80030590619D0184B0022C3F85C2146
:10659000D3F88034184A23F07F0313703B6823F04C
:1065A00001133B60336823F4803343F0010333600D
:1065B000052301930F4B01A81B6898473A6833687D
:1065C0001A4200F0EB8011480022002303F08CFAFD
:1065D000002840F0E380054BD3F82C35002B7BD00E
:1065E0000A4803B0BDE8F04F03F05ABA0070024009
:1065F000F4290020F82900207C4E00207B4E00204A
:10660000F0290020087102407A4E0020C0020020CC
:10661000307102407D4E002013407FF464AF60F083
:106620007F018DF804908DF806108DF80730DAF8A8
:10663000003001A8984756E7A0F110018DF80490AA
:106640008DF806108DF80750F1E749F080052846CF
:10665000FFF758FC4368B0F814A001689A4528BFBA
:106660009A4601F06043B3F1005F044604D05448F9
:10667000524605F0CCFD52492268636852442260BC
:10668000A268A3EB0A03D20768B2636053D5BAF1DC
:10669000000F52D1002323734FE011464FF0000A40
:1066A000604545D1003B18BF0123002A42D0504528
:1066B00040D9012303FA09F32BEA03033B600623C5
:1066C0008DF804303F4B8DF8065002221B68A275EE
:1066D0008DF8072001A89847D7F800B033681BEA67
:1066E00003093FF47DAF19F0012314BF93FAA3F916
:1066F00099FAA9F9B9FA89F9B9F10F0FA5D9A9F150
:106700001005EDB22846FFF7FDFB04462846FFF7CB
:10671000FFFD6368B4F814C022689842BDD81B1A04
:1067200000EB020E11466360C4F800E08246B7E752
:106730000023BAE768B2002BACD04FF08053D3F8F7
:106740003031082B02BF204B8222C3F81C2C336847
:1067500088F80050012202FA09F923EA090333609C
:10676000236915F0080F53442361174B19D10028F2
:1067700005F00F054FF0140000FB0530A9BF0A35E6
:1067800003EB8503C0F80017C0F804A7AFBF43F8B8
:106790002520C0F80016C0F804A65A6003B0BDE872
:1067A000F08F0028B5BFC3F8A016C3F8A017C3F830
:1067B000A4A6C3F8A4A7B4BF5A629A64EEE700BFC8
:1067C00000280020F829002000700240024B40F40D
:1067D0008070C3F81805704700700240030713D497
:1067E00000F00F0310F0800F084A0BBF03F5887309
:1067F00003F5847302EB830252F8230008BF50684C
:10680000003818BF01207047002070470070024018
:10681000034BC3F80C0540F48070C3F80C057047B7
:106820000070024010B508220021044605F0FAFC71
:106830000E4BD3F880242270D3F884246270D3F8EE
:106840008824D3F88C1442EA01226280D3F8902481
:10685000D3F8941442EA0122A280D3F89824D3F802
:106860009C3442EA0323E38010BD00BF0070024065
:10687000014B0122DA64704700700240014B012293
:106880001A65704700700240014B01225A6570473B
:1068900000700240014B1878704700BF7C4E00200A
:1068A00010B50246EFF31184202383F31288BFF35F
:1068B0006F8F05F021FD0B49012303FA00F00B68EF
:1068C00023EA00030B6012F0080101BF02F00F027F
:1068D000054B02F5947243F8221084F31188BFF33C
:1068E0006F8F10BDF429002000700240F7B50146FB
:1068F000EFF31185202383F31288BFF36F8FFFF727
:1069000001FB0646084605F0F7FC012211F0800F56
:1069100002FA00F22D4818D1036832EA03040AD0C3
:106920000846FFF7BDFF0323B37585F31188BFF356
:106930006F8F03B0F0BD2649347323EA020303606E
:106940000B6823EA02030B60EDE70B0715D48029DF
:10695000204B2FD001F00F0404F2DA346400C3F8A6
:106960000048D3F80448D3F80478E4B244F00204B1
:106970003C43C3F80448D3F80438154F04683B6817
:1069800064EA030C1CEA020FCFD013433B600023E0
:1069900033730323B3758DF807300F4B8DF8061052
:1069A00024EA0204062204601B688DF8042001A872
:1069B0009847BAE740F2B474C3F80048D3F80448E3
:1069C000D3F80478E4B244F00404D1E7F0290020BD
:1069D000F429002000700240F829002038B5044650
:1069E000094D4FF0FF324FF0FF33284603F07CF89B
:1069F0002046FFF77BFF284603F052F8034B802226
:106A0000C3F8042138BD00BFC002002000E100E04F
:106A1000F8B54FF0FF324FF0FF332B4803F064F826
:106A20002A4B8022C3F884212720FEF70FFA98B161
:106A3000274E284B34681B68240C24041C43012770
:106A400064BB254D40F2FF1333602720C5F8044591
:106A5000FEF7E8F9C5F80043204A13788BB11E4BC6
:106A60000021C3F808110121C3F80026C3F8041659
:106A70005960D3F808110029FBD00021C3F8081190
:106A80001170154B0022C3F80025FFF787FA0E4856
:106A900003F006F8124B01221A70F8BD94FAA4F51F
:106AA000B5FA85F50F2D2846C6BFA5F11000C0B276
:106AB00040F08000030701D4FFF718FF07FA05F53F
:106AC00024EA0504BCE700BFC002002000E100E0AA
:106AD000F4290020F0290020007002407A4E0020A6
